:0400000007EF00F016
:0A0008006D820BED08F087EF0CF09D
:10100000003738392F3435362A3132332D23303DED
:051010002B2569000022
:101016000600FACF66F0FBCF67F0D9CF68F0DACFDB
:1010260069F0F3CF6AF0F4CF6BF0F2A81DEF08F089
:101036001FEF08F028EF08F0F2A224EF08F026EFE1
:1010460008F028EF08F05BEC0DF0F0A62DEF08F0A5
:101056002FEF08F038EF08F0F0A034EF08F036EF85
:1010660008F038EF08F059EC0DF0F0A83DEF08F065
:101076003FEF08F048EF08F0F0A244EF08F046EF23
:1010860008F048EF08F057EC0DF0F2A64DEF08F027
:101096004FEF08F06AEF08F0F2A054EF08F056EFB1
:1010A60008F06AEF08F081A85BEF08F05DEF08F042
:1010B6006AEF08F05704D8A463EF08F065EF08F06C
:1010C6006AEF08F0000E576E010E21EC0DF0F2A645
:1010D6006FEF08F071EF08F08CEF08F0F2A076EFF2
:1010E60008F078EF08F08CEF08F081B87DEF08F093
:1010F6007FEF08F08CEF08F05750D8A485EF08F082
:1011060087EF08F08CEF08F0010E576E000E21EC09
:101116000DF0F2A691EF08F093EF08F0AEEF08F0AD
:10112600F2A098EF08F09AEF08F0AEEF08F081AA67
:101136009FEF08F0A1EF08F0AEEF08F05604D8A430
:10114600A7EF08F0A9EF08F0AEEF08F0000E566E14
:10115600010E14EC0DF0F2A6B3EF08F0B5EF08F0AF
:10116600D0EF08F0F2A0BAEF08F0BCEF08F0D0EF2D
:1011760008F081BAC1EF08F0C3EF08F0D0EF08F02D
:101186005650D8A4C9EF08F0CBEF08F0D0EF08F01E
:10119600010E566E000E14EC0DF0F2A6D5EF08F017
:1011A600D7EF08F0F2EF08F0F2A0DCEF08F0DEEF80
:1011B60008F0F2EF08F081ACE3EF08F0E5EF08F095
:1011C600F2EF08F05504D8A4EBEF08F0EDEF08F0C5
:1011D600F2EF08F0000E556E010E07EC0DF0F2A6C8
:1011E600F7EF08F0F9EF08F014EF09F0F2A0FEEFC0
:1011F60008F000EF09F014EF09F081BA05EF09F0E5
:1012060007EF09F014EF09F05550D8A40DEF09F0D7
:101216000FEF09F014EF09F0010E556E000E07EC02
:101226000DF0F2A619EF09F01BEF09F036EF09F001
:10123600F2A020EF09F022EF09F036EF09F081AEB7
:1012460027EF09F029EF09F036EF09F05404D8A486
:101256002FEF09F031EF09F036EF09F0000E546E6A
:10126600010EFAEC0CF0F2A63BEF09F03DEF09F0A7
:1012760058EF09F0F2A042EF09F044EF09F058EFF9
:1012860009F081BE49EF09F04BEF09F058EF09F07C
:101296005450D8A451EF09F053EF09F058EF09F074
:1012A600010E546E000EFAEC0CF09DAC5DEF09F0E9
:1012B6005FEF09F068EF09F09EAC64EF09F066EFA6
:1012C60009F068EF09F05DEC0DF0F2AA6DEF09F098
:1012D6006FEF09F078EF09F0F2A474EF09F076EFFA
:1012E60009F078EF09F045EC0DF09DA07DEF09F0CF
:1012F6007FEF09F088EF09F09EA084EF09F086EFF2
:1013060009F088EF09F03FEC0DF09DA28DEF09F092
:101316008FEF09F098EF09F09EA294EF09F096EF8F
:1013260009F098EF09F050EC0DF0A0A29DEF09F03E
:101336009FEF09F0A8EF09F0A1A2A4EF09F0A6EF2C
:1013460009F0A8EF09F0CDEC0CF06BC0F4FF6AC011
:10135600F3FF69C0DAFF68C0D9FF67C0FBFF66C04C
:10136600FAFF6D921100010E6C6E00018051811121
:10137600D8B4C0EF09F0C2EF09F0D3EF09F080C08E
:10138600D9FF81C0DAFFDF30E832E832070B826F1F
:10139600070E8265D1EF09F0D3EF09F038EF0AF0B6
:1013A600000E6C6E59EF0AF080C0D9FF81C0DAFFDB
:1013B600DF30E832E832070B826F010E836F822B33
:1013C600E7EF09F0D8908337822FE5EF09F00001A7
:1013D6008351FF0A846F80C0D9FF81C0DAFFDF50D6
:1013E600070B856F8551020D410EF324D96E000E51
:1013F600F420DA6EDECF86F0DDCF87F086C0D9FF27
:1014060087C0DAFF8451DF1659EF0AF080C0D9FF92
:1014160081C0DAFFDF30E832E832070B826F010E57
:10142600836F822B19EF0AF0D8908337822F17EF3C
:101436000AF080C0D9FF81C0DAFFDF50070B000138
:10144600846F8451020D410EF324D96E000EF420F0
:10145600DA6EDECF85F0DDCF86F085C0D9FF86C097
:10146600DAFF8351DF1259EF0AF080C0D9FF81C03D
:10147600DAFFDFBC41EF0AF044EF0AF0010E45EF58
:101486000AF0000E826F836B8351000AD8B44EEFC8
:101496000AF0D3EF09F08251000AD8B4D7EF09F069
:1014A600010AD8B409EF0AF0D3EF09F06C50120024
:1014B600010E6C6E000180518111D8B465EF0AF0FF
:1014C60067EF0AF078EF0AF080C0D9FF81C0DAFF33
:1014D600DF30E832E832070B836F070E836576EF5D
:1014E6000AF078EF0AF0DDEF0AF0000E6C6EF2EF0C
:1014F6000AF080C0D9FF81C0DAFFDF30E832E83277
:10150600070B836F010E846F832B8CEF0AF0D89044
:101516008437832F8AEF0AF080C0D9FF81C0DAFFB3
:10152600DF50070B0001856F8551020D370EF3243E
:10153600D96E000EF420DA6EDECF86F0DDCF87F0AE
:1015460086C0D9FF87C0DAFF8451DF12F2EF0AF0B6
:1015560080C0D9FF81C0DAFFDF30E832E832070BFE
:10156600836F010E846F832BBBEF0AF0D89084370C
:10157600832FB9EF0AF000018451FF0A856F80C0FE
:10158600D9FF81C0DAFFDF50070B866F8651020D47
:10159600370EF324D96E000EF420DA6EDECF87F014
:1015A600DDCF88F087C0D9FF88C0DAFF8551DF1606
:1015B600F2EF0AF08251836F846B8451000AD8B42B
:1015C600E7EF0AF078EF0AF08351000AD8B4ABEFE0
:1015D6000AF0010AD8B47CEF0AF078EF0AF06C50F2
:1015E6001200000182518311D8A4FCEF0AF0FEEF2D
:1015F6000AF002EF0BF0000E6C6E4AEF0BF0B190A2
:1016060082C080F083C081F09AEC0BF0000120EEDE
:1016160005F08251D9268351DA22DF30E832030BF6
:10162600846F843BB1508419CF0B8419B16E20EEC0
:1016360003F08251D9268351DA22DECF84F0DDCF42
:1016460085F085C084F0856B8451B36E20EE03F07F
:101656008251D9268351DA22DF50B26E20EE03F092
:101666008251D9268351DA22DECF03F0DDCF04F092
:10167600A082A19282C0D9FF83C0DAFFDECF01F03B
:10168600DDCF02F0F28EF28CB180010E6C6E6C50E2
:101696001200010E616E5A505B10D8B455EF0BF074
:1016A60057EF0BF068EF0BF05AC0D9FF5BC0DAFFBB
:1016B600DF30E832E832070B5C6E070E5C6466EFDB
:1016C6000BF068EF0BF06CEF0BF0000E616E98EF0D
:1016D6000BF05AC0D9FF5BC0DAFFDF30E832E832E0
:1016E600070B5C6E010E5D6E5C2A7CEF0BF0D890EA
:1016F6005D365C2E7AEF0BF05AC0D9FF5BC0DAFF7D
:10170600DF50070B5E6E5E50020D370EF324D96E66
:10171600000EF420DA6EDECF5FF0DDCF60F05FC042
:10172600D9FF60C0DAFF5D50DF1A61501200000178
:1017360020EE05F08051D9268151DA22DFB0A6EFDE
:101746000BF0A8EF0BF0ABEF0BF0B192D9EF0BF06B
:1017560020EE05F08051D9268151DA22DFA0B6EFBE
:101766000BF0B8EF0BF0D9EF0BF0B18220EE05F0DD
:101776008051D9268151DA22DFB2C4EF0BF0C6EFD1
:101786000BF0C9EF0BF0B194D9EF0BF020EE05F09A
:101796008051D9268151DA22DFA2D4EF0BF0D6EFA1
:1017A6000BF0D9EF0BF0B184D9EF0BF0120000016A
:1017B6008D518E11D8A4E2EF0BF0E4EF0BF0E6EFBB
:1017C6000BF014EF0CF030C090F08DC0D9FF8EC036
:1017D600DAFFDF500F0B8F6F90518F19F80B8F19AF
:1017E600906F8DC0D9FF8EC0DAFFDF38070B8F6F81
:1017F6008F478F478F4790518F19C70B8F19906F5F
:10180600909D8DC0D9FF8EC0DAFFDFAE02D0908FDB
:1018160002D00001909F900E896F000E8A6F15EC22
:101826000CF01200000189518A11D8B41DEF0CF09A
:101836001FEF0CF030EF0CF089C0D9FF8AC0DAFF39
:10184600DF30E832E832070B8B6F070E8B652EEF21
:101856000CF030EF0CF034EF0CF0000E8C6F4CEF08
:101866000CF089C080F08AC081F0B6EC09F0000166
:101876008C6F89C080F08AC081F089C0D9FF8AC088
:10188600DAFF000EDFBE010E826F5BEC0AF000018C
:101896008C6F8C51120062506310D8A455EF0CF077
:1018A60057EF0CF059EF0CF086EF0CF02DC065F0F9
:1018B60062C0D9FF63C0DAFFDF500F0B646E65505C
:1018C6006418F80B6418656E62C0D9FF63C0DAFF4E
:1018D600DF38070B646E64466446644665506418D8
:1018E600C70B6418656E659C62C0D9FF63C0DAFFDA
:1018F600DFAE02D0658E01D0659E650E5A6E000E73
:101906005B6E4CEC0BF01200960EF66E1A0EF76E2E
:10191600000EF86E00EE91F010EE0AF00900F5CF19
:10192600EEFFE550E150FAE1D00EF66E190EF76EB5
:10193600000EF86E00EE37F010EE23F00900F5CF3A
:10194600EEFFE550E150FAE100EE01F0360EEE6AE8
:10195600E806FDE16D906D920001B2EF0CF054ECDB
:101966000DF05C0E316E1A0E326E000E336E0C0EDA
:101976003612000E356E000E346E36903682310EFB
:101986000001826F000E836FF4EC0AF0C9EF0CF0D1
:1019960007EF00F0A1920450B36E03C0B2FF0150EE
:1019A6000210D8B4D9EF0CF0DBEF0CF0E7EF0CF037
:1019B60002D8E7EF0CF00500FA6E0150FD6E0250FA
:1019C600FE6EFF6AFA5012001200890F8A0F8B0F03
:1019D6008C0F8D0F920F930F940F950F960F020A8F
:0D19E600121A222A52010001010101021211
:1019F4005A6EF2905A50D8A402EF0DF004EF0DF095
:101A040006EF0DF006EF0DF012005A6EF2905A50E8
:101A1400D8A40FEF0DF011EF0DF013EF0DF013EF4D
:101A24000DF012005A6EF2905A50D8A41CEF0DF02B
:101A34001EEF0DF020EF0DF020EF0DF012005A6EA6
:101A4400F2905A50D8A429EF0DF02BEF0DF02DEFA2
:101A54000DF02DEF0DF012000F4A102A590E626E90
:101A6400000E636E4EEC0CF01200590E00018D6FE7
:101A7400000E8E6FDAEC0BF012009E900A50CF6EBF
:101A840009C0CEFF1200F2940C50D76E0BC0D6FFE3
:101A94001200800F810F820F830F840F9E9229C042
:101AA400CCFF120037EC0DF01200F0921200F0900F
:0A1AB4001200F29212009E9C120034
:020000040020DA
:08000000FFFFFFFFFFFFFFFF00
:020000040030CA
:0E000000FF02091EFF8181FF0FC00FE00F40BD
:00000001FF
