:0400000007EF00F016
:0A00080077826BED0AF002EF13F0AF
:10100000003738392F3435362A3132332D23303DED
:051010002B2569000022
:101016003350800B3C6E335033243E6E32AE16EFA7
:1010260008F018EF08F019EF08F03E803E50D8B4EB
:101036001FEF08F021EF08F036EF08F03E28D8A49D
:1010460027EF08F029EF08F031EF08F0000E306EB8
:10105600000E316E000E326E000E336E328E000EB2
:10106600336E3EEF08F0000E306E000E316E000E4D
:10107600326E000E336E3750800B3D6E3C503D187D
:10108600D8B448EF08F04AEF08F04BEF08F03C8C74
:10109600375037243D6E36AE53EF08F055EF08F063
:1010A60056EF08F03D803D50D8B45CEF08F05EEF97
:1010B60008F073EF08F03D28D8A464EF08F066EF57
:1010C60008F06EEF08F0000E346E000E356E000E5E
:1010D600366E000E376E368E000E376E7BEF08F0DA
:1010E600000E346E000E356E000E366E000E376E34
:1010F6003E503D5CD8B082EF08F084EF08F0ABEFCD
:1011060008F03CAC89EF08F08BEF08F08DEF08F0A3
:10111600800E3C1A3EC03FF03DC03EF03FC03DF061
:1011260030C03FF034C030F03FC034F031C03FF043
:1011360035C031F03FC035F032C03FF036C032F036
:101146003FC036F033C03FF037C033F03FC037F012
:10115600000E3F6E3E503DC038F0396A385E000ED4
:10116600395A39BEC0EF08F0395009E11A0E385C19
:10117600D8A0C0EF08F0C2EF08F0F9EF08F0305041
:10118600311032103310D8A4CBEF08F0CEEF08F0B0
:10119600010ECFEF08F0000E3F6E000E306E000E0F
:1011A600316E000E326E000E336E3DC03EF002EF21
:1011B60009F03FA0E1EF08F0E3EF08F0E9EF08F0EF
:1011C600D8903F3001093F6EEBEF08F0D8903F32E0
:1011D60030A0F0EF08F0F2EF08F0F3EF08F03F8EE2
:1011E600333433323232313230323E2A3D503E5C75
:1011F600D8A000EF09F002EF09F0DCEF08F03CBCE4
:1012060007EF09F009EF09F049EF09F03E50D8A4BD
:101216000FEF09F011EF09F01BEF09F0000E306E29
:10122600000E316E000E326E000E336E6AEF0AF05B
:101236003450302635503122365032223750332240
:1012460033A028EF09F02AEF09F0D6EF09F03FA006
:101256002FEF09F031EF09F037EF09F0D8903F3062
:1012660001093F6E39EF09F0D8903F3230A03EEFCA
:1012760009F040EF09F041EF09F03F8E3334333285
:101286003232313230323E2AD6EF09F03450305CF9
:1012960035503158365032583350800A386E3750F0
:1012A600800A3858D8B05AEF09F05CEF09F087EF9A
:1012B60009F03050345C386E31503558396E325042
:1012C60036583A6E335037583B6EFF0E3824306E20
:1012D600FF0E3920316EFF0E3A20326EFF0E3B2094
:1012E600336E800E3C1A3F6C3F50D8A47DEF09F058
:1012F6007FEF09F08FEF09F0010E3026000E312244
:10130600322233228FEF09F03450305E3550315A95
:101316003650325A3750335A30503110321033105B
:10132600D8A498EF09F09AEF09F0CFEF09F03F50F3
:10133600D8A4A0EF09F0A2EF09F0CFEF09F0000E54
:10134600306E000E316E000E326E000E336E6AEF96
:101356000AF0D89030363136323633363FAEB6EFF5
:1013660009F0B8EF09F0B9EF09F030803FA0BEEF01
:1013760009F0C0EF09F0C4EF09F0D8803F36C6EF98
:1013860009F0D8903F363E50D8B4CCEF09F0CEEFF6
:1013960009F0CFEF09F03E0632AED4EF09F0D6EFF2
:1013A60009F0ACEF09F0000E3D6E3FAEDDEF09F03F
:1013B600DFEF09F0F7EF09F03FC038F07F0E38167F
:1013C600D8B4E8EF09F0EAEF09F0EEEF09F0010E04
:1013D6003D6EF7EF09F030A0F3EF09F0F5EF09F0F5
:1013E600F7EF09F0EAEF09F03D50D8B4FDEF09F048
:1013F600FFEF09F02AEF0AF0010E3026000E312227
:101406003222332233A00AEF0AF00CEF0AF02AEF59
:101416000AF030C038F031C039F032C03AF033C08B
:101426003BF03B343B323A323932383238C030F056
:1014360039C031F03AC032F03BC033F03E28D8B460
:1014460027EF0AF029EF0AF02AEF0AF03E2A3E2893
:10145600D8B430EF0AF032EF0AF03AEF0AF03E5015
:10146600D8A438EF0AF03AEF0AF04CEF0AF0000E73
:10147600306E000E316E000E326E000E336E3E5030
:10148600D8A448EF0AF04AEF0AF04CEF0AF0000E33
:101496003C6E3EA051EF0AF053EF0AF056EF0AF009
:1014A600328E57EF0AF0329ED8903E30336E3CAE05
:1014B6005FEF0AF061EF0AF062EF0AF0338E30C098
:1014C60030F031C031F032C032F033C033F01200A8
:1014D6000600FACF05F0FBCF06F0D9CF07F0DACF3A
:1014E60008F0F2A879EF0AF07BEF0AF084EF0AF031
:1014F600F2A280EF0AF082EF0AF084EF0AF00DEC18
:1015060014F0F0A689EF0AF08BEF0AF094EF0AF0D8
:10151600F0A090EF0AF092EF0AF094EF0AF00BECCD
:1015260014F0F0A899EF0AF09BEF0AF0A4EF0AF086
:10153600F0A2A0EF0AF0A2EF0AF0A4EF0AF009EC7D
:1015460014F0F2A6A9EF0AF0ABEF0AF0C6EF0AF024
:10155600F2A0B0EF0AF0B2EF0AF0C6EF0AF081A8E7
:10156600B7EF0AF0B9EF0AF0C6EF0AF07404D8A490
:10157600BFEF0AF0C1EF0AF0C6EF0AF0000E746E74
:10158600010ECCEC13F0F2A6CBEF0AF0CDEF0AF089
:10159600E8EF0AF0F2A0D2EF0AF0D4EF0AF0E8EF93
:1015A6000AF081B8D9EF0AF0DBEF0AF0E8EF0AF0AB
:1015B6007450D8A4E1EF0AF0E3EF0AF0E8EF0AF07E
:1015C600010E746E000ECCEC13F0F2A6EDEF0AF0ED
:1015D600EFEF0AF00AEF0BF0F2A0F4EF0AF0F6EFE5
:1015E6000AF00AEF0BF081AAFBEF0AF0FDEF0AF012
:1015F6000AEF0BF07304D8A403EF0BF005EF0BF022
:101606000AEF0BF0000E736E010EBFEC13F0F2A69C
:101616000FEF0BF011EF0BF02CEF0BF0F2A016EF23
:101626000BF018EF0BF02CEF0BF081BA1DEF0BF05F
:101636001FEF0BF02CEF0BF07350D8A425EF0BF037
:1016460027EF0BF02CEF0BF0010E736E000EBFECC4
:1016560013F0F2A631EF0BF033EF0BF04EEF0BF079
:10166600F2A038EF0BF03AEF0BF04EEF0BF081AC37
:101676003FEF0BF041EF0BF04EEF0BF07204D8A4E6
:1016860047EF0BF049EF0BF04EEF0BF0000E726ECA
:10169600010EB2EC13F0F2A653EF0BF055EF0BF080
:1016A60070EF0BF0F2A05AEF0BF05CEF0BF070EF5F
:1016B6000BF081BA61EF0BF063EF0BF070EF0BF0FC
:1016C6007250D8A469EF0BF06BEF0BF070EF0BF0D4
:1016D600010E726E000EB2EC13F0F2A675EF0BF06F
:1016E60077EF0BF092EF0BF0F2A07CEF0BF07EEFB2
:1016F6000BF092EF0BF081AE83EF0BF085EF0BF062
:1017060092EF0BF07104D8A48BEF0BF08DEF0BF07A
:1017160092EF0BF0000E716E010EA5EC13F0F2A61F
:1017260097EF0BF099EF0BF0B4EF0BF0F2A09EEFF2
:101736000BF0A0EF0BF0B4EF0BF081BEA5EF0BF0B2
:10174600A7EF0BF0B4EF0BF07150D8A4ADEF0BF090
:10175600AFEF0BF0B4EF0BF0010E716E000EA5ECBF
:1017660013F09DACB9EF0BF0BBEF0BF0C4EF0BF031
:101776009EACC0EF0BF0C2EF0BF0C4EF0BF015EC14
:1017860014F0F2AAC9EF0BF0CBEF0BF0D4EF0BF08D
:10179600F2A4D0EF0BF0D2EF0BF0D4EF0BF0F7EC96
:1017A60013F09DA0D9EF0BF0DBEF0BF0E4EF0BF09D
:1017B6009EA0E0EF0BF0E2EF0BF0E4EF0BF0F1ECA4
:1017C60013F09DA2E9EF0BF0EBEF0BF0F4EF0BF04B
:1017D6009EA2F0EF0BF0F2EF0BF0F4EF0BF0FDEC46
:1017E60013F0A0A2F9EF0BF0FBEF0BF004EF0CF0F7
:1017F600A1A200EF0CF002EF0CF004EF0CF0EBEC02
:1018060013F09DA409EF0CF00BEF0CF014EF0CF0A5
:101816009EA410EF0CF012EF0CF014EF0CF013EC8A
:1018260014F0A0A019EF0CF01BEF0CF024EF0CF055
:10183600A1A020EF0CF022EF0CF024EF0CF011EC3D
:1018460014F09DA829EF0CF02BEF0CF034EF0CF000
:101856009EA830EF0CF032EF0CF034EF0CF00FECEA
:1018660014F09DAA39EF0CF03BEF0CF044EF0CF0AE
:101876009EAA40EF0CF042EF0CF044EF0CF017EC90
:1018860014F09DAA49EF0CF04BEF0CF054EF0CF05E
:10189600ABA250EF0CF052EF0CF054EF0CF018EC3A
:1018A60014F09DAA59EF0CF05BEF0CF064EF0CF00E
:1018B600ABA460EF0CF062EF0CF064EF0CF019ECE7
:1018C60014F09DA669EF0CF06BEF0CF07DEF0CF0B9
:1018D6009EA670EF0CF072EF0CF074EF0CF07AEC41
:1018E60013F0A1A679EF0CF07BEF0CF07DEF0CF076
:1018F60007EC14F008C0DAFF07C0D9FF06C0FBFFEB
:1019060005C0FAFF779211001A50800B276E1A5005
:101916001A242E6E19AE92EF0CF094EF0CF095EFA0
:101926000CF02E802E50D8B49BEF0CF09DEF0CF0EF
:10193600B2EF0CF02E28D8A4A3EF0CF0A5EF0CF014
:10194600ADEF0CF0000E176E000E186E000E196E3D
:10195600000E1A6E198E000E1A6EBAEF0CF0000EFB
:10196600176E000E186E000E196E000E1A6E1E50BF
:10197600800B271A1E501E242F6E1DAEC5EF0CF0CD
:10198600C7EF0CF0C8EF0CF02F802F50D8B4CEEF75
:101996000CF0D0EF0CF0E5EF0CF02F28D8A4D6EF22
:1019A6000CF0D8EF0CF0E0EF0CF0000E1B6E000E02
:1019B6001C6E000E1D6E000E1E6E1D8E000E1E6E1F
:1019C600EDEF0CF0000E1B6E000E1C6E000E1D6E71
:1019D600000E1E6E1B501C101D101E10D8A4F6EF14
:1019E6000CF0F8EF0CF010EF0DF0000E176E000E75
:1019F600186E000E196E000E1A6E800E19127F0EEA
:101A06001A1227501A1217C017F018C018F019C06A
:101A160019F01AC01AF053EF0EF02E50D8A416EF94
:101A26000DF018EF0DF022EF0DF0000E176E000E00
:101A3600186E000E196E000E1A6E53EF0EF02F5030
:101A46002EC01FF0206A1F5E000E205A7F0E1F2434
:101A5600286E000E2020296E17C023F018C024F02F
:101A660019C025F01AC026F0000E176E000E186E6B
:101A7600000E196E000E1A6E000E2A6E000E2B6EE8
:101A8600000E2C6E000E2D6E000E2F6E83EF0DF0E5
:101A96002F50D8B451EF0DF053EF0DF06AEF0DF063
:101AA600D8902336243625362636D890173618365B
:101AB60019361A362DAE62EF0DF064EF0DF065EFB4
:101AC6000DF01780D8902A362B362C362D361B5023
:101AD600235C1C5024581D5025581E502658D8A04B
:101AE60077EF0DF079EF0DF082EF0DF02D8C1B5096
:101AF600235E1C50245A1D50255A1E50265A2F2A42
:101B0600190E2F6489EF0DF08BEF0DF04BEF0DF0F2
:101B16002350241025102610D8B494EF0DF096EF1C
:101B26000DF0AEEF0DF02A80AEEF0DF0D89017361F
:101B3600183619361A362DAEA3EF0DF0A5EF0DF0B7
:101B4600A6EF0DF01780D8902A362B362C362D3678
:101B56002806D8A0290619AEB3EF0DF0B5EF0DF0A3
:101B660099EF0DF0000E2F6E2DAEBCEF0DF0BEEF0F
:101B76000DF0E2EF0DF0FF0E2A141F6EFF0E2B1470
:101B8600206EFF0E2C14216E7F0E2D14226E1F5018
:101B9600201021102210D8B4D3EF0DF0D5EF0DF0A0
:101BA600D9EF0DF0010E2F6EE2EF0DF017A0DEEF6C
:101BB6000DF0E0EF0DF0E2EF0DF0D5EF0DF02F5048
:101BC600D8B4E8EF0DF0EAEF0DF00EEF0EF0010ECF
:101BD6001726000E182219221A221AA0F5EF0DF068
:101BE600F7EF0DF00EEF0EF017C01FF018C020F043
:101BF60019C021F01AC022F02234223221322032BA
:101C06001F321FC017F020C018F021C019F022C0E3
:101C16001AF0284A292A29BE19EF0EF0295008E1A0
:101C26002828D8A019EF0EF01BEF0EF026EF0EF0C5
:101C3600000E296E2868000E176E000E186E000E34
:101C4600196E000E1A6E29BE33EF0EF0295006E10A
:101C56002804D8B031EF0EF033EF0EF041EF0EF05E
:101C6600000E296E000E286E000E176E000E186EFE
:101C7600000E196E000E1A6E000E276E28C02EF08A
:101C86002EA048EF0EF04AEF0EF04DEF0EF0198E33
:101C96004EEF0EF0199ED8902E301A6E04EF0DF00E
:101CA60012000001D651D711D8A45CEF0EF05EEFFA
:101CB6000EF062EF0EF0000EDA6F3FEF0FF0C69AED
:101CC60020EE04F0D651D926D751DA22DFA06EEFE6
:101CD6000EF070EF0EF0B3EF0EF0000E346E000E45
:101CE600356E800E366EBF0E376ED6C0D9FFD7C0A2
:101CF600DAFFDECFD8F0DDCFD9F0D8C009F0D9C0F1
:101D06000AF00B6A0C6A000E41EC0FF009C01BF0DA
:101D16000AC01CF00BC01DF00CC01EF0000E176EA2
:101D2600240E186EF40E196E490E1A6E87EC0CF01E
:101D360017C030F018C031F019C032F01AC033F0B5
:101D46000BEC08F030C040F031C041F032C042F038
:101D560033C043F053EC11F04050C86EE9EF0EF07B
:101D660020EE04F0D651D926D751DA22DFB0BEEFE5
:101D76000EF0C0EF0EF0E9EF0EF020EE04F0D651B3
:101D8600D926D751DA22DFA6CBEF0EF0CDEF0EF033
:101D9600D0EF0EF0C58EDEEF0EF020EE04F0D65139
:101DA600D926D751DA22DFB6DBEF0EF0DDEF0EF0E3
:101DB600DEEF0EF0C59EC69EC69CC68820EE02F0DB
:101DC600D651D926D751DA22DF50C86E000120EE4F
:101DD60003F0D651D926D751DA22DF50D86FC65034
:101DE600D819F00BD819C66E9486948820EE04F0A4
:101DF600D651D926D751DA22DFB204EF0FF006EF1B
:101E06000FF009EF0FF0C79E17EF0FF020EE04F06A
:101E1600D651D926D751DA22DFA214EF0FF016EFEA
:101E26000FF017EF0FF0C78E20EE04F0D651D9262B
:101E3600D751DA22DFA422EF0FF024EF0FF027EFBD
:101E46000FF0C78C35EF0FF020EE04F0D651D926EF
:101E5600D751DA22DFB432EF0FF034EF0FF035EF5F
:101E66000FF0C79CD6C009F0D7C00AF033EC13F0C8
:101E7600C68A010E0001DA6FDA511200116E115096
:101E8600D8B448EF0FF04AEF0FF06CEF0FF00CBE2E
:101E960051EF0FF04FEF0FF06CEF0FF009C00DF0A0
:101EA6000AC00EF00BC00FF00CC010F00D1E0E1E77
:101EB6000F1E101E0D2A000E0E220F2210220DC01C
:101EC60013F00EC014F00FC015F010C016F074EF2A
:101ED6000FF009C013F00AC014F00BC015F00CC0C7
:101EE60016F009500A100B100C10D8A47DEF0FF055
:101EF6007FEF0FF089EF0FF0000E096E000E0A6EED
:101F0600000E0B6E000E0C6E1AEF10F0960E126E8F
:101F160093EF0FF0122AD89016321532143213327C
:101F2600000E13140D6E000E14140E6E000E151412
:101F36000F6EFE0E1614106E0D500E100F101010B0
:101F4600D8A4A8EF0FF0AAEF0FF08DEF0FF0B8EFBF
:101F56000FF0122A010E1326000E14221522162245
:101F6600D8901632153214321332000E13140D6E39
:101F7600000E14140E6E000E15140F6EFF0E1614BE
:101F8600106E0D500E100F101010D8A4CDEF0FF0DC
:101F9600CFEF0FF0ACEF0FF0D7EF0FF01206D8909F
:101FA600133614361536163615BEDCEF0FF0DEEF97
:101FB6000FF0E6EF0FF0020E1260E4EF0FF0E6EF1F
:101FC6000FF0D1EF0FF012B0EBEF0FF0EDEF0FF0D7
:101FD600EEEF0FF0159ED890123212C00DF00E6A79
:101FE6000F6A106A0DC010F00F6A0E6A0D6A0D5066
:101FF60013120E5014120F501512105016121150C3
:10200600D8B408EF10F00AEF10F012EF10F00CBE83
:1020160011EF10F00FEF10F012EF10F0168E13C044
:1020260009F014C00AF015C00BF016C00CF012002F
:10203600010E116E09500A10D8B424EF10F026EFE5
:1020460010F037EF10F009C0D9FF0AC0DAFFDF3011
:10205600E832E832070B0B6E070E0B6435EF10F013
:1020660037EF10F09AEF10F0000E116EBBEF10F084
:1020760009C0D9FF0AC0DAFFDF30E832E832070BC1
:102086000B6E010E0C6E0B2A4BEF10F0D8900C362F
:102096000B2E49EF10F00C50FF0A0D6E09C0D9FF48
:1020A6000AC0DAFFDF50070B0E6E0E50020DC10E8E
:1020B600F324D96E000EF420DA6EDECF0FF0DDCFFA
:1020C60010F00FC0D9FF10C0DAFF0D50DF16BBEFBE
:1020D60010F009C0D9FF0AC0DAFFDF30E832E83273
:1020E600070B0B6E010E0C6E0B2A7CEF10F0D890CE
:1020F6000C360B2E7AEF10F009C0D9FF0AC0DAFFB2
:10210600DF50070B0D6E0D50020DC10EF324D96E74
:10211600000EF420DA6EDECF0EF0DDCF0FF00EC02B
:10212600D9FF0FC0DAFF0C50DF12BBEF10F009C069
:10213600D9FF0AC0DAFFDFBCA3EF10F0A6EF10F05C
:10214600010EA7EF10F0000E0B6E0C6A0C50000A81
:10215600D8B4B0EF10F037EF10F00B50000AD8B437
:102166003BEF10F0010AD8B46CEF10F037EF10F027
:1021760011501200010E126E09500A10D8B4C6EFA3
:1021860010F0C8EF10F0D9EF10F009C0D9FF0AC05F
:10219600DAFFDF30E832E832070B0C6E070E0C640C
:1021A600D7EF10F0D9EF10F03CEF11F0000E126EE1
:1021B60051EF11F009C0D9FF0AC0DAFFDF30E8326B
:1021C600E832070B0C6E010E0D6E0C2AEDEF10F0C7
:1021D600D8900D360C2EEBEF10F009C0D9FF0AC0CF
:1021E600DAFFDF50070B0E6E0E50020DB70EF3240A
:1021F600D96E000EF420DA6EDECF0FF0DDCF10F0D0
:102206000FC0D9FF10C0DAFF0D50DF1251EF11F0E9
:1022160009C0D9FF0AC0DAFFDF30E832E832070B1F
:102226000C6E010E0D6E0C2A1BEF11F0D8900D36B8
:102236000C2E19EF11F00D50FF0A0E6E09C0D9FFD2
:102246000AC0DAFFDF50070B0F6E0F50020DB70EF4
:10225600F324D96E000EF420DA6EDECF10F0DDCF57
:1022660011F010C0D9FF11C0DAFF0E50DF1651EF82
:1022760011F00B500C6E0D6A0D50000AD8B446EFE3
:1022860011F0D9EF10F00C50000AD8B40BEF11F092
:10229600010AD8B4DDEF10F0D9EF10F01250120099
:1022A600423443340001D56FD551D8A45DEF11F007
:1022B6005FEF11F069EF11F0000E406E000E416EF7
:1022C600000E426E000E436ED6EF11F040C044F091
:1022D60041C045F042C046F043C047F0200E79EFBA
:1022E60011F0D8904732463245324432E82E74EF28
:1022F60011F04450D46F428EFF0E4016FF0E411669
:10230600FF0E4216000E4316960ED55FD5BF90EF10
:1023160011F08EEF11F0A6EF11F0D551800A970F4C
:10232600D8B098EF11F09AEF11F09CEF11F05FEF33
:1023360011F0D8904332423241324032D53F9CEFC1
:1023460011F0BEEF11F01F0ED565ACEF11F0AEEF38
:1023560011F0B6EF11F05FEF11F0D890403641362C
:1023660042364336D507D551D8A4BCEF11F0BEEF9F
:1023760011F0B0EF11F0D451D8B4C4EF11F0C6EF9C
:1023860011F0CEEF11F0431E421E411E406C000EAE
:1023960041224222432240C040F041C041F042C0A7
:1023A60042F043C043F0120004EC14F00001A49183
:1023B600620EA26F060EA36FA483A495A497B20E15
:1023C600A56F270EA66F000EA86F000EA96F000E50
:1023D600AB6F000EAC6FA00ED66F000ED76F54EC2D
:1023E6000EF00001804B812B620E6F18D8A4FEEF11
:1023F60011F000EF12F008EF12F0760E136E000ED9
:10240600146E1DEC12F0F4EF11F0640E6F18D8A4E0
:102416000FEF12F011EF12F019EF12F0760E136EA5
:10242600000E146E58EC12F0F4EF11F0F4EF11F008
:1024360007EF00F013501410D8A424EF12F026EF83
:1024460012F028EF12F057EF12F06DC016F013C01D
:10245600D9FF14C0DAFFDF500F0B156E1650151892
:10246600F80B1518166E13C0D9FF14C0DAFFDF3843
:10247600070B156E15461546154616501518C70B4B
:102486001518166E169C13C0D9FF14C0DAFFDFAEFE
:1024960002D0168E01D0169E160E096E000E0A6E1A
:1024A600010E0B6EBDEC10F0120013501410D8A4E0
:1024B6005FEF12F061EF12F063EF12F092EF12F09D
:1024C6006CC016F013C0D9FF14C0DAFFDF500F0B33
:1024D600156E16501518F80B1518166E13C0D9FF81
:1024E60014C0DAFFDF38070B156E1546154615467C
:1024F60016501518C70B1518166E169C13C0D9FF63
:1025060014C0DAFFDFAE02D0168E01D0169E160E6C
:10251600096E000E0A6E000E0B6EBDEC10F0120076
:1025260017501810D8A49AEF12F09CEF12F09EEFF5
:1025360012F0CBEF12F06EC01AF017C0D9FF18C018
:10254600DAFFDF500F0B196E1A501918F80B19180D
:102556001A6E17C0D9FF18C0DAFFDF38070B196EDD
:102566001946194619461A501918C70B19181A6E22
:102576001A9C17C0D9FF18C0DAFFDFAE02D01A8E38
:1025860001D01A9E1A0E136E000E146ECCEC12F0C9
:10259600120013501410D8B4D3EF12F0D5EF12F086
:1025A600E6EF12F013C0D9FF14C0DAFFDF30E832CD
:1025B600E832070B156E070E1564E4EF12F0E6EF2E
:1025C60012F0EAEF12F0000E166E00EF13F013C0D1
:1025D60009F014C00AF01BEC10F0166E13C009F0D7
:1025E60014C00AF013C0D9FF14C0DAFF000EDFBE14
:1025F600010E0B6EBDEC10F0166E16501200220E78
:10260600F66E270EF76E000EF86E00EEADF010EEC9
:1026160027F00900F5CFEEFFE550E150FAE1020E92
:10262600F66E280EF76E000EF86E00EE71F010EEE4
:1026360006F00900F5CFEEFFE550E150FAE100EEB5
:1026460080F02D0EEE6AE806FDE100EE48F0290E58
:10265600EE6AE806FDE1779077920001D7EF11F078
:1026660020EE05F00950D9260A50DA22DECF5CF0BA
:10267600DDCF5DF020EE08F00950D9260A50DA22A7
:10268600DECF5AF0DDCF5BF020EE0BF00950D926F5
:102696000A50DA22DECF9EF0DDCF9FF09D86A0861F
:1026A6009E96A196F28EF28C1200C698C7B45EEF83
:1026B60013F060EF13F077EF13F0C7BA65EF13F07E
:1026C60067EF13F077EF13F0C950C7A06DEF13F063
:1026D6006FEF13F068EF13F003C0D9FF04C0DAFF01
:1026E600C9CFDFFF78EF13F0C750C68812009E9659
:1026F6005C505D10D8B482EF13F084EF13F090EFC6
:1027060013F002D890EF13F00500FA6E5C50FD6EE0
:102716005D50FE6EFF6AFA5012001200800F810FA4
:10272600820F830F840F890F8A0F8B0F8C0F8D0FEB
:10273600920F930F940F950F960F020A121A222AE0
:032746005201003D
:10274A00016EF2900150D8A4ADEF13F0AFEF13F081
:10275A00B1EF13F0B1EF13F01200016EF2900150D5
:10276A00D8A4BAEF13F0BCEF13F0BEEF13F0BEEF2C
:10277A0013F01200016EF2900150D8A4C7EF13F0C3
:10278A00C9EF13F0CBEF13F0CBEF13F01200016E89
:10279A00F2900150D8A4D4EF13F0D6EF13F0D8EF8B
:1027AA0013F0D8EF13F01200A00E016E000E026EA5
:1027BA006F0E036E000E046E58EC13F01200760EC4
:1027CA00176E000E186E93EC12F01200A192495087
:1027DA00B36E48C0B2FF12009E904B50CF6E4AC0F3
:1027EA00CEFF1200F2944D50D76E4CC0D6FF1200A5
:1027FA009E9267C0CCFF1200010101011203E4ECB2
:10280A0013F01200A1961200F0921200F09012003A
:10281A00F29212009D981200A19012009E9412004A
:0A282A009E9C120012001200120022
:020000040020DA
:08000000FFFFFFFFFFFFFFFF00
:020000040030CA
:0E000000FF02091EFF8181FF0FC00FE00F40BD
:00000001FF
